:100000000C9476000C9497000C9497000C94970035
:100010000C9497000C9497000C9497000C94970004
:100020000C9497000C9497000C9497000C949700F4
:100030000C9497000C9497000C9497000C949700E4
:100040000C9497000C9497000C9497000C949700D4
:100050000C9497000C94CB000C9497000C94970090
:100060000C9497000C9497000C9497000C949700B4
:100070000C9497000C9497000C9497000C949700A4
:100080000C9497000C9497000C9497000C94970094
:100090000C9497000C9497000C9497000C94970084
:1000A0000C9497000C9497000C9497000C94970074
:1000B0000C9497000C9497000C9497000C94970064
:1000C0000C9497000C9497000C9497000C94970054
:1000D0000C9497000C9497000C9497000C94970044
:1000E0000C9497000C9499000C94A60011241FBE48
:1000F000CFEFD1E2DEBFCDBF00E00CBF12E0A0E049
:10010000B2E0E2EEFBE000E00BBF02C007900D9210
:10011000AA37B107D9F722E0AAE7B2E001C01D92E1
:10012000A438B207E1F70E94BB010C94EF050C94D0
:10013000000082B198E0892782B986E092E09F931F
:100140008F930E9486010F900F90089582B190E1E5
:10015000892782B987E292E09F938F930E9486015C
:100160000F900F9008958CE181B98FEF87B91298A5
:100170001398149817B8089516BC84B5826084BD8E
:1001800085B5846085BD8EE387BDEEE6F0E08081B5
:100190008260808308951F920F920FB60F921124F0
:1001A0008F939F93AF93BF9380917A0290917B023C
:1001B000A0917C02B0917D020196A11DB11D80939A
:1001C0007A0290937B02A0937C02B0937D02BF9150
:1001D000AF919F918F910F900FBE0F901F90189528
:1001E0002FB7F89460917A0270917B0280917C0223
:1001F00090917D022FBF0895CF92DF92EF92FF92F0
:10020000CF93DF936B017C01EA018CE090E00E94C8
:10021000FA01FC01892B79F489E492E09F938F9392
:100220000E9486010F900F90DF91CF91FF90EF9089
:10023000DF90CF900895C082D182E282F38214824F
:10024000158216821782D187C08780917E02909195
:100250007F0293878287F0937F02E0937E02E4CF50
:100260000F931F93CF93DF93C0917E02D0917F02B3
:10027000209729F4DF91CF911F910F9108950E944B
:10028000F0000C811D812E813F81601B710B820B60
:10029000930B088119812A813B81601771078207BE
:1002A000930748F00E94F0006C837D838E839F83C8
:1002B000E885F98519950A84DB85C02DD9CF9C0185
:1002C00050E040E060E472E48FE090E00E94D801EA
:1002D000DA01C9010197A109B109892F9A2FAB2F22
:1002E000BB278093C50021502093C40086E08093F3
:1002F000C200E1ECF0E080818860808308959091F5
:10030000C00095FFFCCF8093C60008950F931F9304
:10031000CF93DF93CDB7DEB7C85ED3400FB6F89466
:10032000DEBF0FBECDBFAE0140515C4FFA016191FF
:100330007191AF01CE0101960E941F038E010F5FE4
:100340001F4FF80181918F01811112C08DE00E9431
:100350007F018AE00E947F01C851DC4F0FB6F894FC
:10036000DEBF0FBECDBFDF91CF911F910F910895DA
:100370000E947F01E6CFF8940E94B3000E94BC0067
:1003800080E895E20E945F01789449E950E068EEC8
:1003900073E080E090E00E94FC0046EA50E060EDEF
:1003A00077E080E090E00E94FC000E943001FDCFE9
:1003B000A1E21A2EAA1BBB1BFD010DC0AA1FBB1F69
:1003C000EE1FFF1FA217B307E407F50720F0A21BDB
:1003D000B30BE40BF50B661F771F881F991F1A9448
:1003E00069F760957095809590959B01AC01BD0172
:1003F000CF0108950F931F93CF93DF938230910520
:1004000010F482E090E0E0918202F091830230E00B
:1004100020E0B0E0A0E0309799F42115310509F40F
:100420004AC0281B390B24303105D8F58A819B81BD
:100430006115710589F1FB0193838283FE0111C06F
:10044000408151810281138148175907E0F0481714
:10045000590799F4109761F012960C93129713961E
:100460001C933296CF01DF91CF911F910F91089588
:100470000093820210938302F4CF2115310551F0CD
:100480004217530738F0A901DB019A01BD01DF01D2
:10049000F801C1CFEF01F9CF9093830280938202DC
:1004A000CDCFFE01E20FF31F8193919322503109CA
:1004B00039832883D7CF2091800230918102232B6A
:1004C00041F4209102023091030230938102209383
:1004D000800220910002309101022115310541F482
:1004E0002DB73EB74091040250910502241B350BF5
:1004F000E0918002F0918102E217F307A0F42E1B35
:100500003F0B2817390778F0AC014E5F5F4F241777
:10051000350748F04E0F5F1F5093810240938002D1
:10052000819391939FCFF0E0E0E09CCFCF93DF9356
:100530000097E9F0FC01329713821282A0918202A7
:10054000B0918302ED0130E020E01097A1F420810A
:100550003181820F931F20918002309181022817F0
:10056000390709F061C0F0938102E0938002DF91C6
:10057000CF910895EA01CE17DF07E8F54A815B8144
:100580009E0141155105B1F7E901FB83EA834991C9
:100590005991C40FD51FEC17FD0761F4808191813B
:1005A0000296840F951FE901998388838281938144
:1005B0009B838A83F0E0E0E012968D919C911397E3
:1005C0000097B9F52D913C911197CD010296820FBC
:1005D000931F20918002309181022817390739F644
:1005E000309751F51092830210928202B0938102EB
:1005F000A0938002BCCFD383C28340815181840FFA
:10060000951FC817D90761F44E5F5F4F88819981A4
:10061000480F591F518340838A819B819383828332
:100620002115310509F0B0CFF0938302E0938202E7
:100630009ECFFD01DC01C0CF13821282D7CF0F9372
:100640001F93CF93DF93CDB7DEB72E970FB6F894F5
:10065000DEBF0FBECDBF8C0186E08C831A83098379
:100660008FEF9FE79E838D83CE0101960E94490301
:100670002F813885020F131FF80110822E960FB6B6
:10068000F894DEBF0FBECDBFDF91CF911F910F91C8
:1006900008952F923F924F925F926F927F928F9226
:1006A0009F92AF92BF92CF92DF92EF92FF920F9301
:1006B0001F93CF93DF9300D000D000D01F921F92E2
:1006C000CDB7DEB77C013B018A01FC01178216829F
:1006D000838181FFDDC1CE0101965C01F701938129
:1006E000F30193FD859193FF81913F01882309F4E4
:1006F00053C1853239F493FD859193FF81913F0178
:10070000853229F4B70190E00E946105E7CF912C72
:10071000212C312CFFE1F31538F08B3211F190F4DC
:10072000803209F1833229F137FC3CC020ED280FDB
:100730002A3050F536FE20C08AE0989E200D112404
:10074000922E06C08D3291F0803371F7689430F8A4
:10075000F30193FD859193FF81913F018111DACFE0
:1007600021C0689431F8689432F8F2CF689433F875
:10077000EFCF689434F8ECCFEAE02E9E200D1124E0
:10078000222E689435F8E4CF8E3229F436FC04C169
:10079000689436F8DDCF8C3619F4689437F8D8CFE2
:1007A0008836B1F2982F9F7D95549330E0F08336D0
:1007B000A1F18337C1F1833509F063C02801F2E06C
:1007C0004F0E511CF801C080D180692D70E036FCBD
:1007D00002C06FEF7FEFC6010E944B054C01689489
:1007E00037F882010AC00C5F1F4FFFE3F9838824AA
:1007F0008394912C6501E89437F833FE2DC0522C78
:100800008114910471F5552009F468CFB70180E295
:1008100090E00E9461055A94F6CFF80180818983A7
:100820000E5F1F4FE4CF2801F2E04F0E511CF8017C
:10083000C080D180692D70E036FC02C06FEF7FEF81
:10084000C6010E9456054C018201D5CFB70180E256
:1008500090E00E9461052A942814190409F0B0F769
:10086000CECFF60137FC859137FE81916F01B7013C
:1008700090E00E94610551105A94F1E08F1A91089E
:10088000BFCF843619F0893609F077C0F80137FEFA
:100890006BC060817181828193810C5F1F4FF32D4A
:1008A000FF763F2E97FF09C09095809570956195D2
:1008B0007F4F8F4F9F4F689437F82AE030E0A501B3
:1008C0000E949105C82ECA188C2C432C36FE0CC0F1
:1008D000E89440F8C91440F434FE05C032FC03C06B
:1008E000F32DFE7E4F2E892C44FEAAC0FE01EC0D96
:1008F000F11D8081803309F09CC0242D297E422E79
:10090000842D8870582E43FCAAC040FEA4C09C2CA5
:10091000821418F42C0C922C981844FEA6C0B7012F
:1009200080E390E00E94610542FE09C088E790E004
:1009300041FE02C088E590E0B7010E946105C9143C
:1009400008F49FC0CA94D12C9FEFC91AD90ACA0CC7
:10095000DB1CF60182916F01B70190E00E946105F6
:10096000AC14BD04B1F74FCF60817181072E000C2C
:10097000880B990B0E5F1F4F92CFD32CE894D4F8BD
:100980002AE030E08537E1F1232D297FD22E8F3602
:10099000A9F1F0F4883551F1F701868197812B9602
:1009A0000FB6F894DEBF0FBECDBFDF91CF911F9180
:1009B0000F91FF90EF90DF90CF90BF90AF909F90FE
:1009C0008F907F906F905F904F903F902F90089501
:1009D000803749F0883701F7D4FE02C06894D2F816
:1009E00020E130E00DC06894D4F8F6CF34FE03C0A7
:1009F000822F8660D82E20E132E002C028E030E06D
:100A0000F801D7FE0FC060817181828193810C5FF4
:100A10001F4FA5010E949105C82ECA183D2CE894CD
:100A200037F852CF6081718190E080E00E5F1F4FF8
:100A3000F0CF42FC02C0839463CF8394839460CF51
:100A4000842D867809F45CCFF6CFB70180E290E080
:100A50000E94610583948214C0F3512C5ECF522C06
:100A60005818821408F459CFF8CF842D867809F4E9
:100A700066CF8BE241FE80E247FC8DE2B70190E059
:100A80005CCFB70180E390E00E9461059A9457CF54
:100A90008FEF9FEF84CFFC010590615070400110F3
:100AA000D8F7809590958E0F9F1F0895FC01615097
:100AB000704001900110D8F7809590958E0F9F1F80
:100AC00008950F931F93CF93DF93182F092FEB01F6
:100AD0008B8181FD09C01FEF0FEF812F902FDF91D8
:100AE000CF911F910F91089582FF14C02E813F81F5
:100AF0008C819D81281739073CF4E881F981CF0169
:100B000001969983888310838E819F8101969F83AC
:100B10008E83E3CFE885F985812F1995892BA1F381
:100B2000DACFFA01AA27283051F1203181F1E89477
:100B30006F936E7F6E5F7F4F8F4F9F4FAF4FB1E0D0
:100B40003ED0B4E03CD0670F781F891F9A1FA11DCB
:100B5000680F791F8A1F911DA11D6A0F711D811DCC
:100B6000911DA11D20D009F468943F912AE0269F91
:100B700011243019305D3193DEF6CF010895462FF0
:100B80004770405D4193B3E00FD0C9F7F6CF462FD1
:100B90004F70405D4A3318F0495D31FD405241933A
:100BA00002D0A9F7EACFB4E0A695979587957795F7
:100BB0006795BA95C9F700976105710508959B017E
:100BC000AC010A2E06945795479537952795BA9507
:100BD000C9F7620F731F841F951FA01D0895F89415
:020BE000FFCF45
:100BE200000084022000456C207072696D657220DD
:100BF2006C6564206861207369646F20656E63654B
:100C02006E6469646F2100456C20736567756E645C
:100C12006F206C6564206861207369646F20656E63
:100C220063656E6469646F21004572726F723A2067
:100C32004E6F207365207075646F20617369676EF3
:100C42006172206D656D6F726961207061726120E1
:0A0C52006C6120746172656100009E
:00000001FF
